:020000020000FC
:1000000000E01FEF2FE130E06C9A74986D98759ABC
:100010006E9A769A01B912B91AB91BB908B9009942
:100020003395321778F40E94430019D000C001992B
:100030003A9544F00E94430012D000C002990E94F9
:100040005800EDCF32133FE130E064E6749A0DD0F2
:1000500000000000749809D06A95C1F70895D894FB
:100060008894C894A894989408954AE057EC0000A6
:100070005A95E9F74A95D1F700000000000000000A
:1000800000000000089530FD759830FF759A31FD2D
:100090005B9831FF5B9A32FD5A9832FF5A9A33FDD2
:1000A000599833FF599A34FD589834FF589A089557
:1000B000F7E03395FA95E9F73A953A953A950E9423
:0400C000430008955C
:00000001FF
