:020000020000FC
:1000000000E01FEF20E230E06C9A749801B912B959
:1000100001B912B91AB90BB908B917D030B1369570
:1000200036951BD000993395321748F43BB915D05B
:1000300000C001993A9534F010D03BB9F3CF30E0CD
:1000400004D0F4CF3FE101D0F8CF61E0749A000012
:10005000000074986A95D1F70895D8948894C8944C
:10006000A894989408954AE057EC00005A95E9F74F
:100070004A95D1F7000000000000000000000000D9
:020080000895E1
:00000001FF
