:020000020000FC
:1000000000E01FEF20E230E06C9A74986D98759ACA
:100010006E9A769801B912B91AB91BB908B9009944
:100020003395321768F43BB918D000C001993A955E
:100030003CF03BB912D000C0029923D0FBB9EFCFFE
:1000400032133FE130E064E6749A0DD00000000006
:10005000749809D06A95C1F70895D8948894C89483
:10006000A894989408954AE057EC00005A95E9F74F
:100070004A95D1F7000000000000000000000000D9
:100080000895F0E00E943300F395039BFBCF0895A1
:00000001FF
