:020000020000FC
:1000000000E01FEF20E230E06C9A74986D9A7598CA
:1000100001B912B901B912B91AB91BB908B919D085
:1000200030B1369536951DD000993395321758F476
:100030000E94450016D000C001993A953CF011D0BD
:100040000E944500F1CF30E004D0F2CF3FE101D073
:10005000F7CF61E0749A0000000074986A95D1F7B8
:100060000895D8948894C894A894989408954AE0E0
:1000700057EC00005A95E9F74A95D1F700000000C7
:100080000000000000000000089530FD759830FF6A
:10009000759A31FD5B9831FF5B9A32FD5A9832FFB9
:1000A0005A9A33FD599833FF599A34FD589834FFC2
:0400B000589A0895BD
:00000001FF
