:020000020000FC
:1000000000E01FEF2FE130E06C9A7498089809988F
:10001000109A119A01B912B91AB90BB908B9009915
:100020003395321748F43BB917D000C001993A957F
:1000300034F012D03BB9F3CF30E004D0F4CF3FE13D
:1000400001D0F8CF64E6749A0DD0000000007498D7
:1000500009D06A95C1F70895D8948894C894A89453
:10006000989408954AE057EC00005A95E9F74A95AC
:10007000D1F700000000000000000000000008951B
:00000001FF
